{
  "contractName": "NFTMarket",
  "abi": [
    {
      "inputs": [],
      "stateMutability": "nonpayable",
      "type": "constructor"
    },
    {
      "anonymous": false,
      "inputs": [
        {
          "indexed": true,
          "internalType": "address",
          "name": "owner",
          "type": "address"
        },
        {
          "indexed": true,
          "internalType": "address",
          "name": "approved",
          "type": "address"
        },
        {
          "indexed": true,
          "internalType": "uint256",
          "name": "tokenId",
          "type": "uint256"
        }
      ],
      "name": "Approval",
      "type": "event"
    },
    {
      "anonymous": false,
      "inputs": [
        {
          "indexed": true,
          "internalType": "address",
          "name": "owner",
          "type": "address"
        },
        {
          "indexed": true,
          "internalType": "address",
          "name": "operator",
          "type": "address"
        },
        {
          "indexed": false,
          "internalType": "bool",
          "name": "approved",
          "type": "bool"
        }
      ],
      "name": "ApprovalForAll",
      "type": "event"
    },
    {
      "anonymous": false,
      "inputs": [
        {
          "indexed": false,
          "internalType": "uint256",
          "name": "tokenId",
          "type": "uint256"
        },
        {
          "indexed": false,
          "internalType": "uint256",
          "name": "price",
          "type": "uint256"
        },
        {
          "indexed": false,
          "internalType": "address",
          "name": "creator",
          "type": "address"
        },
        {
          "indexed": false,
          "internalType": "bool",
          "name": "isListed",
          "type": "bool"
        }
      ],
      "name": "NFTItemCreated",
      "type": "event"
    },
    {
      "anonymous": false,
      "inputs": [
        {
          "indexed": true,
          "internalType": "address",
          "name": "previousOwner",
          "type": "address"
        },
        {
          "indexed": true,
          "internalType": "address",
          "name": "newOwner",
          "type": "address"
        }
      ],
      "name": "OwnershipTransferred",
      "type": "event"
    },
    {
      "anonymous": false,
      "inputs": [
        {
          "indexed": true,
          "internalType": "address",
          "name": "from",
          "type": "address"
        },
        {
          "indexed": true,
          "internalType": "address",
          "name": "to",
          "type": "address"
        },
        {
          "indexed": true,
          "internalType": "uint256",
          "name": "tokenId",
          "type": "uint256"
        }
      ],
      "name": "Transfer",
      "type": "event"
    },
    {
      "inputs": [
        {
          "internalType": "address",
          "name": "to",
          "type": "address"
        },
        {
          "internalType": "uint256",
          "name": "tokenId",
          "type": "uint256"
        }
      ],
      "name": "approve",
      "outputs": [],
      "stateMutability": "nonpayable",
      "type": "function"
    },
    {
      "inputs": [
        {
          "internalType": "address",
          "name": "owner",
          "type": "address"
        }
      ],
      "name": "balanceOf",
      "outputs": [
        {
          "internalType": "uint256",
          "name": "",
          "type": "uint256"
        }
      ],
      "stateMutability": "view",
      "type": "function",
      "constant": true
    },
    {
      "inputs": [
        {
          "internalType": "uint256",
          "name": "tokenId",
          "type": "uint256"
        }
      ],
      "name": "getApproved",
      "outputs": [
        {
          "internalType": "address",
          "name": "",
          "type": "address"
        }
      ],
      "stateMutability": "view",
      "type": "function",
      "constant": true
    },
    {
      "inputs": [
        {
          "internalType": "address",
          "name": "owner",
          "type": "address"
        },
        {
          "internalType": "address",
          "name": "operator",
          "type": "address"
        }
      ],
      "name": "isApprovedForAll",
      "outputs": [
        {
          "internalType": "bool",
          "name": "",
          "type": "bool"
        }
      ],
      "stateMutability": "view",
      "type": "function",
      "constant": true
    },
    {
      "inputs": [],
      "name": "listingPrice",
      "outputs": [
        {
          "internalType": "uint256",
          "name": "",
          "type": "uint256"
        }
      ],
      "stateMutability": "view",
      "type": "function",
      "constant": true
    },
    {
      "inputs": [],
      "name": "name",
      "outputs": [
        {
          "internalType": "string",
          "name": "",
          "type": "string"
        }
      ],
      "stateMutability": "view",
      "type": "function",
      "constant": true
    },
    {
      "inputs": [],
      "name": "owner",
      "outputs": [
        {
          "internalType": "address",
          "name": "",
          "type": "address"
        }
      ],
      "stateMutability": "view",
      "type": "function",
      "constant": true
    },
    {
      "inputs": [
        {
          "internalType": "uint256",
          "name": "tokenId",
          "type": "uint256"
        }
      ],
      "name": "ownerOf",
      "outputs": [
        {
          "internalType": "address",
          "name": "",
          "type": "address"
        }
      ],
      "stateMutability": "view",
      "type": "function",
      "constant": true
    },
    {
      "inputs": [],
      "name": "renounceOwnership",
      "outputs": [],
      "stateMutability": "nonpayable",
      "type": "function"
    },
    {
      "inputs": [
        {
          "internalType": "address",
          "name": "from",
          "type": "address"
        },
        {
          "internalType": "address",
          "name": "to",
          "type": "address"
        },
        {
          "internalType": "uint256",
          "name": "tokenId",
          "type": "uint256"
        }
      ],
      "name": "safeTransferFrom",
      "outputs": [],
      "stateMutability": "nonpayable",
      "type": "function"
    },
    {
      "inputs": [
        {
          "internalType": "address",
          "name": "from",
          "type": "address"
        },
        {
          "internalType": "address",
          "name": "to",
          "type": "address"
        },
        {
          "internalType": "uint256",
          "name": "tokenId",
          "type": "uint256"
        },
        {
          "internalType": "bytes",
          "name": "_data",
          "type": "bytes"
        }
      ],
      "name": "safeTransferFrom",
      "outputs": [],
      "stateMutability": "nonpayable",
      "type": "function"
    },
    {
      "inputs": [
        {
          "internalType": "address",
          "name": "operator",
          "type": "address"
        },
        {
          "internalType": "bool",
          "name": "approved",
          "type": "bool"
        }
      ],
      "name": "setApprovalForAll",
      "outputs": [],
      "stateMutability": "nonpayable",
      "type": "function"
    },
    {
      "inputs": [
        {
          "internalType": "bytes4",
          "name": "interfaceId",
          "type": "bytes4"
        }
      ],
      "name": "supportsInterface",
      "outputs": [
        {
          "internalType": "bool",
          "name": "",
          "type": "bool"
        }
      ],
      "stateMutability": "view",
      "type": "function",
      "constant": true
    },
    {
      "inputs": [],
      "name": "symbol",
      "outputs": [
        {
          "internalType": "string",
          "name": "",
          "type": "string"
        }
      ],
      "stateMutability": "view",
      "type": "function",
      "constant": true
    },
    {
      "inputs": [
        {
          "internalType": "uint256",
          "name": "tokenId",
          "type": "uint256"
        }
      ],
      "name": "tokenURI",
      "outputs": [
        {
          "internalType": "string",
          "name": "",
          "type": "string"
        }
      ],
      "stateMutability": "view",
      "type": "function",
      "constant": true
    },
    {
      "inputs": [
        {
          "internalType": "address",
          "name": "from",
          "type": "address"
        },
        {
          "internalType": "address",
          "name": "to",
          "type": "address"
        },
        {
          "internalType": "uint256",
          "name": "tokenId",
          "type": "uint256"
        }
      ],
      "name": "transferFrom",
      "outputs": [],
      "stateMutability": "nonpayable",
      "type": "function"
    },
    {
      "inputs": [
        {
          "internalType": "address",
          "name": "newOwner",
          "type": "address"
        }
      ],
      "name": "transferOwnership",
      "outputs": [],
      "stateMutability": "nonpayable",
      "type": "function"
    },
    {
      "inputs": [
        {
          "internalType": "uint256",
          "name": "newPrice",
          "type": "uint256"
        }
      ],
      "name": "setListingPrice",
      "outputs": [],
      "stateMutability": "nonpayable",
      "type": "function"
    },
    {
      "inputs": [
        {
          "internalType": "uint256",
          "name": "tokenId",
          "type": "uint256"
        }
      ],
      "name": "getNFTItem",
      "outputs": [
        {
          "components": [
            {
              "internalType": "uint256",
              "name": "tokenId",
              "type": "uint256"
            },
            {
              "internalType": "uint256",
              "name": "price",
              "type": "uint256"
            },
            {
              "internalType": "address",
              "name": "creator",
              "type": "address"
            },
            {
              "internalType": "bool",
              "name": "isListed",
              "type": "bool"
            }
          ],
          "internalType": "struct NFTMarket.NFTItem",
          "name": "",
          "type": "tuple"
        }
      ],
      "stateMutability": "view",
      "type": "function",
      "constant": true
    },
    {
      "inputs": [],
      "name": "getListedItems",
      "outputs": [
        {
          "internalType": "uint256",
          "name": "",
          "type": "uint256"
        }
      ],
      "stateMutability": "view",
      "type": "function",
      "constant": true
    },
    {
      "inputs": [
        {
          "internalType": "string",
          "name": "tokenURI",
          "type": "string"
        }
      ],
      "name": "tokenURIExists",
      "outputs": [
        {
          "internalType": "bool",
          "name": "",
          "type": "bool"
        }
      ],
      "stateMutability": "view",
      "type": "function",
      "constant": true
    },
    {
      "inputs": [],
      "name": "totalSupply",
      "outputs": [
        {
          "internalType": "uint256",
          "name": "",
          "type": "uint256"
        }
      ],
      "stateMutability": "view",
      "type": "function",
      "constant": true
    },
    {
      "inputs": [
        {
          "internalType": "uint256",
          "name": "index",
          "type": "uint256"
        }
      ],
      "name": "tokenByIndex",
      "outputs": [
        {
          "internalType": "uint256",
          "name": "",
          "type": "uint256"
        }
      ],
      "stateMutability": "view",
      "type": "function",
      "constant": true
    },
    {
      "inputs": [
        {
          "internalType": "address",
          "name": "owner",
          "type": "address"
        },
        {
          "internalType": "uint256",
          "name": "index",
          "type": "uint256"
        }
      ],
      "name": "tokenOfOwnerByIndex",
      "outputs": [
        {
          "internalType": "uint256",
          "name": "",
          "type": "uint256"
        }
      ],
      "stateMutability": "view",
      "type": "function",
      "constant": true
    },
    {
      "inputs": [],
      "name": "getAllNFTsOnSale",
      "outputs": [
        {
          "components": [
            {
              "internalType": "uint256",
              "name": "tokenId",
              "type": "uint256"
            },
            {
              "internalType": "uint256",
              "name": "price",
              "type": "uint256"
            },
            {
              "internalType": "address",
              "name": "creator",
              "type": "address"
            },
            {
              "internalType": "bool",
              "name": "isListed",
              "type": "bool"
            }
          ],
          "internalType": "struct NFTMarket.NFTItem[]",
          "name": "",
          "type": "tuple[]"
        }
      ],
      "stateMutability": "view",
      "type": "function",
      "constant": true
    },
    {
      "inputs": [
        {
          "internalType": "uint256",
          "name": "tokenId",
          "type": "uint256"
        },
        {
          "internalType": "uint256",
          "name": "newPrice",
          "type": "uint256"
        }
      ],
      "name": "placeNFTOnSale",
      "outputs": [],
      "stateMutability": "payable",
      "type": "function",
      "payable": true
    },
    {
      "inputs": [],
      "name": "getOwnedNfts",
      "outputs": [
        {
          "components": [
            {
              "internalType": "uint256",
              "name": "tokenId",
              "type": "uint256"
            },
            {
              "internalType": "uint256",
              "name": "price",
              "type": "uint256"
            },
            {
              "internalType": "address",
              "name": "creator",
              "type": "address"
            },
            {
              "internalType": "bool",
              "name": "isListed",
              "type": "bool"
            }
          ],
          "internalType": "struct NFTMarket.NFTItem[]",
          "name": "",
          "type": "tuple[]"
        }
      ],
      "stateMutability": "view",
      "type": "function",
      "constant": true
    },
    {
      "inputs": [
        {
          "internalType": "string",
          "name": "tokenURI",
          "type": "string"
        },
        {
          "internalType": "uint256",
          "name": "price",
          "type": "uint256"
        }
      ],
      "name": "mintToken",
      "outputs": [
        {
          "internalType": "uint256",
          "name": "",
          "type": "uint256"
        }
      ],
      "stateMutability": "payable",
      "type": "function",
      "payable": true
    },
    {
      "inputs": [
        {
          "internalType": "uint256",
          "name": "tokenId",
          "type": "uint256"
        }
      ],
      "name": "buyNFT",
      "outputs": [],
      "stateMutability": "payable",
      "type": "function",
      "payable": true
    }
  ],
  "bytecode": "0x60806040526658d15e176280006008553480156200001c57600080fd5b506040518060400160405280600c81526020017f4372656174757265734e465400000000000000000000000000000000000000008152506040518060400160405280600481526020017f434e4654000000000000000000000000000000000000000000000000000000008152508160009080519060200190620000a1929190620001b1565b508060019080519060200190620000ba929190620001b1565b505050620000dd620000d1620000e360201b60201c565b620000eb60201b60201c565b620002c5565b600033905090565b6000600760009054906101000a900473ffffffffffffffffffffffffffffffffffffffff16905081600760006101000a81548173ffffffffffffffffffffffffffffffffffffffff021916908373ffffffffffffffffffffffffffffffffffffffff1602179055508173ffffffffffffffffffffffffffffffffffffffff168173ffffffffffffffffffffffffffffffffffffffff167f8be0079c531659141344cd1fd0a4f28419497f9722a3daafe3b4186f6b6457e060405160405180910390a35050565b828054620001bf9062000290565b90600052602060002090601f016020900481019282620001e357600085556200022f565b82601f10620001fe57805160ff19168380011785556200022f565b828001600101855582156200022f579182015b828111156200022e57825182559160200191906001019062000211565b5b5090506200023e919062000242565b5090565b5b808211156200025d57600081600090555060010162000243565b5090565b7f4e487b7100000000000000000000000000000000000000000000000000000000600052602260045260246000fd5b60006002820490506001821680620002a957607f821691505b602082108103620002bf57620002be62000261565b5b50919050565b614c2080620002d56000396000f3fe6080604052600436106101c25760003560e01c806370a08231116100f7578063b88d4fde11610095578063caf5069011610064578063caf5069014610663578063e985e9c51461068e578063f0be4fac146106cb578063f2fde38b146106f6576101c2565b8063b88d4fde146105a2578063c046372c146105cb578063c78f19f9146105fb578063c87b56dd14610626576101c2565b80637c726b69116100d15780637c726b69146104fa5780638da5cb5b1461052357806395d89b411461054e578063a22cb46514610579576101c2565b806370a082311461047b57806370cbcb43146104b8578063715018a6146104e3576101c2565b80632f745c59116101645780634f6ccce71161013e5780634f6ccce7146103a857806351ed8288146103e55780636352211e146104015780636a3ceff91461043e576101c2565b80632f745c591461030557806342842e0e1461034257806343d32ae71461036b576101c2565b8063095ea7b3116101a0578063095ea7b31461026c57806318160ddd14610295578063232e5aa6146102c057806323b872dd146102dc576101c2565b806301ffc9a7146101c757806306fdde0314610204578063081812fc1461022f575b600080fd5b3480156101d357600080fd5b506101ee60048036038101906101e9919061309f565b61071f565b6040516101fb91906130e7565b60405180910390f35b34801561021057600080fd5b50610219610801565b604051610226919061319b565b60405180910390f35b34801561023b57600080fd5b50610256600480360381019061025191906131f3565b610893565b6040516102639190613261565b60405180910390f35b34801561027857600080fd5b50610293600480360381019061028e91906132a8565b610918565b005b3480156102a157600080fd5b506102aa610a2f565b6040516102b791906132f7565b60405180910390f35b6102da60048036038101906102d59190613312565b610a3c565b005b3480156102e857600080fd5b5061030360048036038101906102fe9190613352565b610c54565b005b34801561031157600080fd5b5061032c600480360381019061032791906132a8565b610cb4565b60405161033991906132f7565b60405180910390f35b34801561034e57600080fd5b5061036960048036038101906103649190613352565b610d59565b005b34801561037757600080fd5b50610392600480360381019061038d91906134da565b610d79565b60405161039f91906130e7565b60405180910390f35b3480156103b457600080fd5b506103cf60048036038101906103ca91906131f3565b610db5565b6040516103dc91906132f7565b60405180910390f35b6103ff60048036038101906103fa91906131f3565b610e26565b005b34801561040d57600080fd5b50610428600480360381019061042391906131f3565b610f8f565b6040516104359190613261565b60405180910390f35b34801561044a57600080fd5b50610465600480360381019061046091906131f3565b611040565b60405161047291906135a5565b60405180910390f35b34801561048757600080fd5b506104a2600480360381019061049d91906135c0565b6110f2565b6040516104af91906132f7565b60405180910390f35b3480156104c457600080fd5b506104cd6111a9565b6040516104da91906136f1565b60405180910390f35b3480156104ef57600080fd5b506104f861130d565b005b34801561050657600080fd5b50610521600480360381019061051c91906131f3565b611395565b005b34801561052f57600080fd5b5061053861145e565b6040516105459190613261565b60405180910390f35b34801561055a57600080fd5b50610563611488565b604051610570919061319b565b60405180910390f35b34801561058557600080fd5b506105a0600480360381019061059b919061373f565b61151a565b005b3480156105ae57600080fd5b506105c960048036038101906105c49190613820565b611530565b005b6105e560048036038101906105e091906138a3565b611592565b6040516105f291906132f7565b60405180910390f35b34801561060757600080fd5b506106106116a3565b60405161061d91906132f7565b60405180910390f35b34801561063257600080fd5b5061064d600480360381019061064891906131f3565b6116a9565b60405161065a919061319b565b60405180910390f35b34801561066f57600080fd5b506106786117fa565b60405161068591906132f7565b60405180910390f35b34801561069a57600080fd5b506106b560048036038101906106b091906138ff565b61180b565b6040516106c291906130e7565b60405180910390f35b3480156106d757600080fd5b506106e061189f565b6040516106ed91906136f1565b60405180910390f35b34801561070257600080fd5b5061071d600480360381019061071891906135c0565b611a32565b005b60007f80ac58cd000000000000000000000000000000000000000000000000000000007bffffffffffffffffffffffffffffffffffffffffffffffffffffffff1916827bffffffffffffffffffffffffffffffffffffffffffffffffffffffff191614806107ea57507f5b5e139f000000000000000000000000000000000000000000000000000000007bffffffffffffffffffffffffffffffffffffffffffffffffffffffff1916827bffffffffffffffffffffffffffffffffffffffffffffffffffffffff1916145b806107fa57506107f982611b29565b5b9050919050565b6060600080546108109061396e565b80601f016020809104026020016040519081016040528092919081815260200182805461083c9061396e565b80156108895780601f1061085e57610100808354040283529160200191610889565b820191906000526020600020905b81548152906001019060200180831161086c57829003601f168201915b5050505050905090565b600061089e82611b93565b6108dd576040517f08c379a00000000000000000000000000000000000000000000000000000000081526004016108d490613a11565b60405180910390fd5b6004600083815260200190815260200160002060009054906101000a900473ffffffffffffffffffffffffffffffffffffffff169050919050565b600061092382610f8f565b90508073ffffffffffffffffffffffffffffffffffffffff168373ffffffffffffffffffffffffffffffffffffffff1603610993576040517f08c379a000000000000000000000000000000000000000000000000000000000815260040161098a90613aa3565b60405180910390fd5b8073ffffffffffffffffffffffffffffffffffffffff166109b2611bff565b73ffffffffffffffffffffffffffffffffffffffff1614806109e157506109e0816109db611bff565b61180b565b5b610a20576040517f08c379a0000000000000000000000000000000000000000000000000000000008152600401610a1790613b35565b60405180910390fd5b610a2a8383611c07565b505050565b6000600f80549050905090565b610a4582610f8f565b73ffffffffffffffffffffffffffffffffffffffff163373ffffffffffffffffffffffffffffffffffffffff1614610ab2576040517f08c379a0000000000000000000000000000000000000000000000000000000008152600401610aa990613ba1565b60405180910390fd5b6000600c60008481526020019081526020016000206000015403610b0b576040517f08c379a0000000000000000000000000000000000000000000000000000000008152600401610b0290613c0d565b60405180910390fd5b60011515600c600084815260200190815260200160002060020160149054906101000a900460ff16151503610b75576040517f08c379a0000000000000000000000000000000000000000000000000000000008152600401610b6c90613c79565b60405180910390fd5b60008111610bb8576040517f08c379a0000000000000000000000000000000000000000000000000000000008152600401610baf90613ce5565b60405180910390fd5b6008543414610bfc576040517f08c379a0000000000000000000000000000000000000000000000000000000008152600401610bf390613d51565b60405180910390fd5b6001600c600084815260200190815260200160002060020160146101000a81548160ff02191690831515021790555080600c600084815260200190815260200160002060010181905550610c506009611cc0565b5050565b610c65610c5f611bff565b82611cd6565b610ca4576040517f08c379a0000000000000000000000000000000000000000000000000000000008152600401610c9b90613de3565b60405180910390fd5b610caf838383611db4565b505050565b6000610cbf836110f2565b8210610d00576040517f08c379a0000000000000000000000000000000000000000000000000000000008152600401610cf790613e4f565b60405180910390fd5b600d60008473ffffffffffffffffffffffffffffffffffffffff1673ffffffffffffffffffffffffffffffffffffffff168152602001908152602001600020600083815260200190815260200160002054905092915050565b610d7483838360405180602001604052806000815250611530565b505050565b600060011515600b83604051610d8f9190613eab565b908152602001604051809103902060009054906101000a900460ff161515149050919050565b6000610dbf610a2f565b8210610e00576040517f08c379a0000000000000000000000000000000000000000000000000000000008152600401610df790613e4f565b60405180910390fd5b600f8281548110610e1457610e13613ec2565b5b90600052602060002001549050919050565b6000600c60008381526020019081526020016000206001015490506000610e4c83610f8f565b90508073ffffffffffffffffffffffffffffffffffffffff163373ffffffffffffffffffffffffffffffffffffffff1603610ebc576040517f08c379a0000000000000000000000000000000000000000000000000000000008152600401610eb390613f3d565b60405180910390fd5b81341015610eff576040517f08c379a0000000000000000000000000000000000000000000000000000000008152600401610ef690613fa9565b60405180910390fd5b6000600c600085815260200190815260200160002060020160146101000a81548160ff021916908315150217905550610f38600961201a565b610f43813385611db4565b8073ffffffffffffffffffffffffffffffffffffffff166108fc349081150290604051600060405180830381858888f19350505050158015610f89573d6000803e3d6000fd5b50505050565b6000806002600084815260200190815260200160002060009054906101000a900473ffffffffffffffffffffffffffffffffffffffff169050600073ffffffffffffffffffffffffffffffffffffffff168173ffffffffffffffffffffffffffffffffffffffff1603611037576040517f08c379a000000000000000000000000000000000000000000000000000000000815260040161102e9061403b565b60405180910390fd5b80915050919050565b611048612f50565b600c600083815260200190815260200160002060405180608001604052908160008201548152602001600182015481526020016002820160009054906101000a900473ffffffffffffffffffffffffffffffffffffffff1673ffffffffffffffffffffffffffffffffffffffff1673ffffffffffffffffffffffffffffffffffffffff1681526020016002820160149054906101000a900460ff1615151515815250509050919050565b60008073ffffffffffffffffffffffffffffffffffffffff168273ffffffffffffffffffffffffffffffffffffffff1603611162576040517f08c379a0000000000000000000000000000000000000000000000000000000008152600401611159906140cd565b60405180910390fd5b600360008373ffffffffffffffffffffffffffffffffffffffff1673ffffffffffffffffffffffffffffffffffffffff168152602001908152602001600020549050919050565b606060006111b6336110f2565b905060008167ffffffffffffffff8111156111d4576111d36133af565b5b60405190808252806020026020018201604052801561120d57816020015b6111fa612f50565b8152602001906001900390816111f25790505b50905060005b828110156113045760006112273383610cb4565b90506000600c600083815260200190815260200160002090508060405180608001604052908160008201548152602001600182015481526020016002820160009054906101000a900473ffffffffffffffffffffffffffffffffffffffff1673ffffffffffffffffffffffffffffffffffffffff1673ffffffffffffffffffffffffffffffffffffffff1681526020016002820160149054906101000a900460ff1615151515815250508484815181106112e4576112e3613ec2565b5b6020026020010181905250505080806112fc9061411c565b915050611213565b50809250505090565b611315611bff565b73ffffffffffffffffffffffffffffffffffffffff1661133361145e565b73ffffffffffffffffffffffffffffffffffffffff1614611389576040517f08c379a0000000000000000000000000000000000000000000000000000000008152600401611380906141b0565b60405180910390fd5b6113936000612076565b565b61139d611bff565b73ffffffffffffffffffffffffffffffffffffffff166113bb61145e565b73ffffffffffffffffffffffffffffffffffffffff1614611411576040517f08c379a0000000000000000000000000000000000000000000000000000000008152600401611408906141b0565b60405180910390fd5b60008111611454576040517f08c379a000000000000000000000000000000000000000000000000000000000815260040161144b9061421c565b60405180910390fd5b8060088190555050565b6000600760009054906101000a900473ffffffffffffffffffffffffffffffffffffffff16905090565b6060600180546114979061396e565b80601f01602080910402602001604051908101604052809291908181526020018280546114c39061396e565b80156115105780601f106114e557610100808354040283529160200191611510565b820191906000526020600020905b8154815290600101906020018083116114f357829003601f168201915b5050505050905090565b61152c611525611bff565b838361213c565b5050565b61154161153b611bff565b83611cd6565b611580576040517f08c379a000000000000000000000000000000000000000000000000000000000815260040161157790613de3565b60405180910390fd5b61158c848484846122a8565b50505050565b600061159d83610d79565b156115dd576040517f08c379a00000000000000000000000000000000000000000000000000000000081526004016115d490614288565b60405180910390fd5b600854341015611622576040517f08c379a000000000000000000000000000000000000000000000000000000000815260040161161990613fa9565b60405180910390fd5b61162c600a611cc0565b6116366009611cc0565b6000611642600a612304565b905061164e3382612312565b6116588185612330565b6001600b8560405161166a9190613eab565b908152602001604051809103902060006101000a81548160ff02191690831515021790555061169981846123a4565b8091505092915050565b60085481565b60606116b482611b93565b6116f3576040517f08c379a00000000000000000000000000000000000000000000000000000000081526004016116ea9061431a565b60405180910390fd5b60006006600084815260200190815260200160002080546117139061396e565b80601f016020809104026020016040519081016040528092919081815260200182805461173f9061396e565b801561178c5780601f106117615761010080835404028352916020019161178c565b820191906000526020600020905b81548152906001019060200180831161176f57829003601f168201915b50505050509050600061179d6124f4565b905060008151036117b25781925050506117f5565b6000825111156117e75780826040516020016117cf92919061433a565b604051602081830303815290604052925050506117f5565b6117f08461250b565b925050505b919050565b60006118066009612304565b905090565b6000600560008473ffffffffffffffffffffffffffffffffffffffff1673ffffffffffffffffffffffffffffffffffffffff16815260200190815260200160002060008373ffffffffffffffffffffffffffffffffffffffff1673ffffffffffffffffffffffffffffffffffffffff16815260200190815260200160002060009054906101000a900460ff16905092915050565b606060006118ab610a2f565b90506000806118ba6009612304565b67ffffffffffffffff8111156118d3576118d26133af565b5b60405190808252806020026020018201604052801561190c57816020015b6118f9612f50565b8152602001906001900390816118f15790505b50905060005b83811015611a2857600061192582610db5565b90506000600c600083815260200190815260200160002090508060020160149054906101000a900460ff1615611a13578060405180608001604052908160008201548152602001600182015481526020016002820160009054906101000a900473ffffffffffffffffffffffffffffffffffffffff1673ffffffffffffffffffffffffffffffffffffffff1673ffffffffffffffffffffffffffffffffffffffff1681526020016002820160149054906101000a900460ff1615151515815250508486815181106119f9576119f8613ec2565b5b60200260200101819052508480611a0f9061411c565b9550505b50508080611a209061411c565b915050611912565b5080935050505090565b611a3a611bff565b73ffffffffffffffffffffffffffffffffffffffff16611a5861145e565b73ffffffffffffffffffffffffffffffffffffffff1614611aae576040517f08c379a0000000000000000000000000000000000000000000000000000000008152600401611aa5906141b0565b60405180910390fd5b600073ffffffffffffffffffffffffffffffffffffffff168173ffffffffffffffffffffffffffffffffffffffff1603611b1d576040517f08c379a0000000000000000000000000000000000000000000000000000000008152600401611b14906143d0565b60405180910390fd5b611b2681612076565b50565b60007f01ffc9a7000000000000000000000000000000000000000000000000000000007bffffffffffffffffffffffffffffffffffffffffffffffffffffffff1916827bffffffffffffffffffffffffffffffffffffffffffffffffffffffff1916149050919050565b60008073ffffffffffffffffffffffffffffffffffffffff166002600084815260200190815260200160002060009054906101000a900473ffffffffffffffffffffffffffffffffffffffff1673ffffffffffffffffffffffffffffffffffffffff1614159050919050565b600033905090565b816004600083815260200190815260200160002060006101000a81548173ffffffffffffffffffffffffffffffffffffffff021916908373ffffffffffffffffffffffffffffffffffffffff160217905550808273ffffffffffffffffffffffffffffffffffffffff16611c7a83610f8f565b73ffffffffffffffffffffffffffffffffffffffff167f8c5be1e5ebec7d5bd14f71427d1e84f3dd0314c0f7b2291e5b200ac8c7c3b92560405160405180910390a45050565b6001816000016000828254019250508190555050565b6000611ce182611b93565b611d20576040517f08c379a0000000000000000000000000000000000000000000000000000000008152600401611d1790614462565b60405180910390fd5b6000611d2b83610f8f565b90508073ffffffffffffffffffffffffffffffffffffffff168473ffffffffffffffffffffffffffffffffffffffff161480611d6d5750611d6c818561180b565b5b80611dab57508373ffffffffffffffffffffffffffffffffffffffff16611d9384610893565b73ffffffffffffffffffffffffffffffffffffffff16145b91505092915050565b8273ffffffffffffffffffffffffffffffffffffffff16611dd482610f8f565b73ffffffffffffffffffffffffffffffffffffffff1614611e2a576040517f08c379a0000000000000000000000000000000000000000000000000000000008152600401611e21906144f4565b60405180910390fd5b600073ffffffffffffffffffffffffffffffffffffffff168273ffffffffffffffffffffffffffffffffffffffff1603611e99576040517f08c379a0000000000000000000000000000000000000000000000000000000008152600401611e9090614586565b60405180910390fd5b611ea48383836125b2565b611eaf600082611c07565b6001600360008573ffffffffffffffffffffffffffffffffffffffff1673ffffffffffffffffffffffffffffffffffffffff1681526020019081526020016000206000828254611eff91906145a6565b925050819055506001600360008473ffffffffffffffffffffffffffffffffffffffff1673ffffffffffffffffffffffffffffffffffffffff1681526020019081526020016000206000828254611f5691906145da565b92505081905550816002600083815260200190815260200160002060006101000a81548173ffffffffffffffffffffffffffffffffffffffff021916908373ffffffffffffffffffffffffffffffffffffffff160217905550808273ffffffffffffffffffffffffffffffffffffffff168473ffffffffffffffffffffffffffffffffffffffff167fddf252ad1be2c89b69c2b068fc378daa952ba7f163c4a11628f55a4df523b3ef60405160405180910390a46120158383836126fa565b505050565b60008160000154905060008111612066576040517f08c379a000000000000000000000000000000000000000000000000000000000815260040161205d9061467c565b60405180910390fd5b6001810382600001819055505050565b6000600760009054906101000a900473ffffffffffffffffffffffffffffffffffffffff16905081600760006101000a81548173ffffffffffffffffffffffffffffffffffffffff021916908373ffffffffffffffffffffffffffffffffffffffff1602179055508173ffffffffffffffffffffffffffffffffffffffff168173ffffffffffffffffffffffffffffffffffffffff167f8be0079c531659141344cd1fd0a4f28419497f9722a3daafe3b4186f6b6457e060405160405180910390a35050565b8173ffffffffffffffffffffffffffffffffffffffff168373ffffffffffffffffffffffffffffffffffffffff16036121aa576040517f08c379a00000000000000000000000000000000000000000000000000000000081526004016121a1906146e8565b60405180910390fd5b80600560008573ffffffffffffffffffffffffffffffffffffffff1673ffffffffffffffffffffffffffffffffffffffff16815260200190815260200160002060008473ffffffffffffffffffffffffffffffffffffffff1673ffffffffffffffffffffffffffffffffffffffff16815260200190815260200160002060006101000a81548160ff0219169083151502179055508173ffffffffffffffffffffffffffffffffffffffff168373ffffffffffffffffffffffffffffffffffffffff167f17307eab39ab6107e8899845ad3d59bd9653f200f220920489ca2b5937696c318360405161229b91906130e7565b60405180910390a3505050565b6122b3848484611db4565b6122bf848484846126ff565b6122fe576040517f08c379a00000000000000000000000000000000000000000000000000000000081526004016122f59061477a565b60405180910390fd5b50505050565b600081600001549050919050565b61232c828260405180602001604052806000815250612886565b5050565b61233982611b93565b612378576040517f08c379a000000000000000000000000000000000000000000000000000000000815260040161236f9061480c565b60405180910390fd5b8060066000848152602001908152602001600020908051906020019061239f929190612f90565b505050565b600081116123e7576040517f08c379a00000000000000000000000000000000000000000000000000000000081526004016123de90614878565b60405180910390fd5b60405180608001604052808381526020018281526020013373ffffffffffffffffffffffffffffffffffffffff16815260200160011515815250600c6000848152602001908152602001600020600082015181600001556020820151816001015560408201518160020160006101000a81548173ffffffffffffffffffffffffffffffffffffffff021916908373ffffffffffffffffffffffffffffffffffffffff16021790555060608201518160020160146101000a81548160ff0219169083151502179055509050507f43f35c7892cef3db6314a5b129e161ca0731bb9e4a5d4f7244b605bb7b65b11582823360016040516124e89493929190614898565b60405180910390a15050565b606060405180602001604052806000815250905090565b606061251682611b93565b612555576040517f08c379a000000000000000000000000000000000000000000000000000000000815260040161254c9061494f565b60405180910390fd5b600061255f6124f4565b9050600081511161257f57604051806020016040528060008152506125aa565b80612589846128e1565b60405160200161259a92919061433a565b6040516020818303038152906040525b915050919050565b6125bd838383612a41565b600073ffffffffffffffffffffffffffffffffffffffff168373ffffffffffffffffffffffffffffffffffffffff16036125ff576125fa81612a46565b61267c565b8173ffffffffffffffffffffffffffffffffffffffff168373ffffffffffffffffffffffffffffffffffffffff161461267b5761263c8382612a8f565b600073ffffffffffffffffffffffffffffffffffffffff168273ffffffffffffffffffffffffffffffffffffffff160361267a5761267981612bfc565b5b5b5b8273ffffffffffffffffffffffffffffffffffffffff168273ffffffffffffffffffffffffffffffffffffffff16141580156126e55750600073ffffffffffffffffffffffffffffffffffffffff168273ffffffffffffffffffffffffffffffffffffffff1614155b156126f5576126f48282612cd5565b5b505050565b505050565b60006127208473ffffffffffffffffffffffffffffffffffffffff16612d54565b15612879578373ffffffffffffffffffffffffffffffffffffffff1663150b7a02612749611bff565b8786866040518563ffffffff1660e01b815260040161276b94939291906149c4565b6020604051808303816000875af19250505080156127a757506040513d601f19601f820116820180604052508101906127a49190614a25565b60015b612829573d80600081146127d7576040519150601f19603f3d011682016040523d82523d6000602084013e6127dc565b606091505b506000815103612821576040517f08c379a00000000000000000000000000000000000000000000000000000000081526004016128189061477a565b60405180910390fd5b805181602001fd5b63150b7a0260e01b7bffffffffffffffffffffffffffffffffffffffffffffffffffffffff1916817bffffffffffffffffffffffffffffffffffffffffffffffffffffffff19161491505061287e565b600190505b949350505050565b6128908383612d77565b61289d60008484846126ff565b6128dc576040517f08c379a00000000000000000000000000000000000000000000000000000000081526004016128d39061477a565b60405180910390fd5b505050565b606060008203612928576040518060400160405280600181526020017f30000000000000000000000000000000000000000000000000000000000000008152509050612a3c565b600082905060005b6000821461295a5780806129439061411c565b915050600a826129539190614a81565b9150612930565b60008167ffffffffffffffff811115612976576129756133af565b5b6040519080825280601f01601f1916602001820160405280156129a85781602001600182028036833780820191505090505b5090505b60008514612a35576001826129c191906145a6565b9150600a856129d09190614ab2565b60306129dc91906145da565b60f81b8183815181106129f2576129f1613ec2565b5b60200101907effffffffffffffffffffffffffffffffffffffffffffffffffffffffffffff1916908160001a905350600a85612a2e9190614a81565b94506129ac565b8093505050505b919050565b505050565b600f805490506010600083815260200190815260200160002081905550600f81908060018154018082558091505060019003906000526020600020016000909190919091505550565b60006001612a9c846110f2565b612aa691906145a6565b90506000600e6000848152602001908152602001600020549050818114612b8b576000600d60008673ffffffffffffffffffffffffffffffffffffffff1673ffffffffffffffffffffffffffffffffffffffff168152602001908152602001600020600084815260200190815260200160002054905080600d60008773ffffffffffffffffffffffffffffffffffffffff1673ffffffffffffffffffffffffffffffffffffffff16815260200190815260200160002060008481526020019081526020016000208190555081600e600083815260200190815260200160002081905550505b600e600084815260200190815260200160002060009055600d60008573ffffffffffffffffffffffffffffffffffffffff1673ffffffffffffffffffffffffffffffffffffffff16815260200190815260200160002060008381526020019081526020016000206000905550505050565b60006001600f80549050612c1091906145a6565b9050600060106000848152602001908152602001600020549050818114612c91576000600f8381548110612c4757612c46613ec2565b5b9060005260206000200154905080600f8381548110612c6957612c68613ec2565b5b9060005260206000200181905550816010600083815260200190815260200160002081905550505b6010600084815260200190815260200160002060009055600f805480612cba57612cb9614ae3565b5b60019003818190600052602060002001600090559055505050565b6000612ce0836110f2565b905081600d60008573ffffffffffffffffffffffffffffffffffffffff1673ffffffffffffffffffffffffffffffffffffffff16815260200190815260200160002060008381526020019081526020016000208190555080600e600084815260200190815260200160002081905550505050565b6000808273ffffffffffffffffffffffffffffffffffffffff163b119050919050565b600073ffffffffffffffffffffffffffffffffffffffff168273ffffffffffffffffffffffffffffffffffffffff1603612de6576040517f08c379a0000000000000000000000000000000000000000000000000000000008152600401612ddd90614b5e565b60405180910390fd5b612def81611b93565b15612e2f576040517f08c379a0000000000000000000000000000000000000000000000000000000008152600401612e2690614bca565b60405180910390fd5b612e3b600083836125b2565b6001600360008473ffffffffffffffffffffffffffffffffffffffff1673ffffffffffffffffffffffffffffffffffffffff1681526020019081526020016000206000828254612e8b91906145da565b92505081905550816002600083815260200190815260200160002060006101000a81548173ffffffffffffffffffffffffffffffffffffffff021916908373ffffffffffffffffffffffffffffffffffffffff160217905550808273ffffffffffffffffffffffffffffffffffffffff16600073ffffffffffffffffffffffffffffffffffffffff167fddf252ad1be2c89b69c2b068fc378daa952ba7f163c4a11628f55a4df523b3ef60405160405180910390a4612f4c600083836126fa565b5050565b60405180608001604052806000815260200160008152602001600073ffffffffffffffffffffffffffffffffffffffff1681526020016000151581525090565b828054612f9c9061396e565b90600052602060002090601f016020900481019282612fbe5760008555613005565b82601f10612fd757805160ff1916838001178555613005565b82800160010185558215613005579182015b82811115613004578251825591602001919060010190612fe9565b5b5090506130129190613016565b5090565b5b8082111561302f576000816000905550600101613017565b5090565b6000604051905090565b600080fd5b600080fd5b60007fffffffff0000000000000000000000000000000000000000000000000000000082169050919050565b61307c81613047565b811461308757600080fd5b50565b60008135905061309981613073565b92915050565b6000602082840312156130b5576130b461303d565b5b60006130c38482850161308a565b91505092915050565b60008115159050919050565b6130e1816130cc565b82525050565b60006020820190506130fc60008301846130d8565b92915050565b600081519050919050565b600082825260208201905092915050565b60005b8381101561313c578082015181840152602081019050613121565b8381111561314b576000848401525b50505050565b6000601f19601f8301169050919050565b600061316d82613102565b613177818561310d565b935061318781856020860161311e565b61319081613151565b840191505092915050565b600060208201905081810360008301526131b58184613162565b905092915050565b6000819050919050565b6131d0816131bd565b81146131db57600080fd5b50565b6000813590506131ed816131c7565b92915050565b6000602082840312156132095761320861303d565b5b6000613217848285016131de565b91505092915050565b600073ffffffffffffffffffffffffffffffffffffffff82169050919050565b600061324b82613220565b9050919050565b61325b81613240565b82525050565b60006020820190506132766000830184613252565b92915050565b61328581613240565b811461329057600080fd5b50565b6000813590506132a28161327c565b92915050565b600080604083850312156132bf576132be61303d565b5b60006132cd85828601613293565b92505060206132de858286016131de565b9150509250929050565b6132f1816131bd565b82525050565b600060208201905061330c60008301846132e8565b92915050565b600080604083850312156133295761332861303d565b5b6000613337858286016131de565b9250506020613348858286016131de565b9150509250929050565b60008060006060848603121561336b5761336a61303d565b5b600061337986828701613293565b935050602061338a86828701613293565b925050604061339b868287016131de565b9150509250925092565b600080fd5b600080fd5b7f4e487b7100000000000000000000000000000000000000000000000000000000600052604160045260246000fd5b6133e782613151565b810181811067ffffffffffffffff82111715613406576134056133af565b5b80604052505050565b6000613419613033565b905061342582826133de565b919050565b600067ffffffffffffffff821115613445576134446133af565b5b61344e82613151565b9050602081019050919050565b82818337600083830152505050565b600061347d6134788461342a565b61340f565b905082815260208101848484011115613499576134986133aa565b5b6134a484828561345b565b509392505050565b600082601f8301126134c1576134c06133a5565b5b81356134d184826020860161346a565b91505092915050565b6000602082840312156134f0576134ef61303d565b5b600082013567ffffffffffffffff81111561350e5761350d613042565b5b61351a848285016134ac565b91505092915050565b61352c816131bd565b82525050565b61353b81613240565b82525050565b61354a816130cc565b82525050565b6080820160008201516135666000850182613523565b5060208201516135796020850182613523565b50604082015161358c6040850182613532565b50606082015161359f6060850182613541565b50505050565b60006080820190506135ba6000830184613550565b92915050565b6000602082840312156135d6576135d561303d565b5b60006135e484828501613293565b91505092915050565b600081519050919050565b600082825260208201905092915050565b6000819050602082019050919050565b60808201600082015161362f6000850182613523565b5060208201516136426020850182613523565b5060408201516136556040850182613532565b5060608201516136686060850182613541565b50505050565b600061367a8383613619565b60808301905092915050565b6000602082019050919050565b600061369e826135ed565b6136a881856135f8565b93506136b383613609565b8060005b838110156136e45781516136cb888261366e565b97506136d683613686565b9250506001810190506136b7565b5085935050505092915050565b6000602082019050818103600083015261370b8184613693565b905092915050565b61371c816130cc565b811461372757600080fd5b50565b60008135905061373981613713565b92915050565b600080604083850312156137565761375561303d565b5b600061376485828601613293565b92505060206137758582860161372a565b9150509250929050565b600067ffffffffffffffff82111561379a576137996133af565b5b6137a382613151565b9050602081019050919050565b60006137c36137be8461377f565b61340f565b9050828152602081018484840111156137df576137de6133aa565b5b6137ea84828561345b565b509392505050565b600082601f830112613807576138066133a5565b5b81356138178482602086016137b0565b91505092915050565b6000806000806080858703121561383a5761383961303d565b5b600061384887828801613293565b945050602061385987828801613293565b935050604061386a878288016131de565b925050606085013567ffffffffffffffff81111561388b5761388a613042565b5b613897878288016137f2565b91505092959194509250565b600080604083850312156138ba576138b961303d565b5b600083013567ffffffffffffffff8111156138d8576138d7613042565b5b6138e4858286016134ac565b92505060206138f5858286016131de565b9150509250929050565b600080604083850312156139165761391561303d565b5b600061392485828601613293565b925050602061393585828601613293565b9150509250929050565b7f4e487b7100000000000000000000000000000000000000000000000000000000600052602260045260246000fd5b6000600282049050600182168061398657607f821691505b6020821081036139995761399861393f565b5b50919050565b7f4552433732313a20617070726f76656420717565727920666f72206e6f6e657860008201527f697374656e7420746f6b656e0000000000000000000000000000000000000000602082015250565b60006139fb602c8361310d565b9150613a068261399f565b604082019050919050565b60006020820190508181036000830152613a2a816139ee565b9050919050565b7f4552433732313a20617070726f76616c20746f2063757272656e74206f776e6560008201527f7200000000000000000000000000000000000000000000000000000000000000602082015250565b6000613a8d60218361310d565b9150613a9882613a31565b604082019050919050565b60006020820190508181036000830152613abc81613a80565b9050919050565b7f4552433732313a20617070726f76652063616c6c6572206973206e6f74206f7760008201527f6e6572206e6f7220617070726f76656420666f7220616c6c0000000000000000602082015250565b6000613b1f60388361310d565b9150613b2a82613ac3565b604082019050919050565b60006020820190508181036000830152613b4e81613b12565b9050919050565b7f4e6f7420746865206f776e657200000000000000000000000000000000000000600082015250565b6000613b8b600d8361310d565b9150613b9682613b55565b602082019050919050565b60006020820190508181036000830152613bba81613b7e565b9050919050565b7f746f6b656e4964206973206e6f74206865726500000000000000000000000000600082015250565b6000613bf760138361310d565b9150613c0282613bc1565b602082019050919050565b60006020820190508181036000830152613c2681613bea565b9050919050565b7f746f6b656e496420697320616c7265616479206f6e2073616c65000000000000600082015250565b6000613c63601a8361310d565b9150613c6e82613c2d565b602082019050919050565b60006020820190508181036000830152613c9281613c56565b9050919050565b7f70726963652073686f756c64206265203e203000000000000000000000000000600082015250565b6000613ccf60138361310d565b9150613cda82613c99565b602082019050919050565b60006020820190508181036000830152613cfe81613cc2565b9050919050565b7f4e6f7420656e6f75676820666f756e6420746f206c6973740000000000000000600082015250565b6000613d3b60188361310d565b9150613d4682613d05565b602082019050919050565b60006020820190508181036000830152613d6a81613d2e565b9050919050565b7f4552433732313a207472616e736665722063616c6c6572206973206e6f74206f60008201527f776e6572206e6f7220617070726f766564000000000000000000000000000000602082015250565b6000613dcd60318361310d565b9150613dd882613d71565b604082019050919050565b60006020820190508181036000830152613dfc81613dc0565b9050919050565b7f496e646578206f7574206f662074686520626f756e6473000000000000000000600082015250565b6000613e3960178361310d565b9150613e4482613e03565b602082019050919050565b60006020820190508181036000830152613e6881613e2c565b9050919050565b600081905092915050565b6000613e8582613102565b613e8f8185613e6f565b9350613e9f81856020860161311e565b80840191505092915050565b6000613eb78284613e7a565b915081905092915050565b7f4e487b7100000000000000000000000000000000000000000000000000000000600052603260045260246000fd5b7f596f7520616c7265616479206f776e2074686973204e46540000000000000000600082015250565b6000613f2760188361310d565b9150613f3282613ef1565b602082019050919050565b60006020820190508181036000830152613f5681613f1a565b9050919050565b7f4e6f7420656e6f7567682066756e647300000000000000000000000000000000600082015250565b6000613f9360108361310d565b9150613f9e82613f5d565b602082019050919050565b60006020820190508181036000830152613fc281613f86565b9050919050565b7f4552433732313a206f776e657220717565727920666f72206e6f6e657869737460008201527f656e7420746f6b656e0000000000000000000000000000000000000000000000602082015250565b600061402560298361310d565b915061403082613fc9565b604082019050919050565b6000602082019050818103600083015261405481614018565b9050919050565b7f4552433732313a2062616c616e636520717565727920666f7220746865207a6560008201527f726f206164647265737300000000000000000000000000000000000000000000602082015250565b60006140b7602a8361310d565b91506140c28261405b565b604082019050919050565b600060208201905081810360008301526140e6816140aa565b9050919050565b7f4e487b7100000000000000000000000000000000000000000000000000000000600052601160045260246000fd5b6000614127826131bd565b91507fffffffffffffffffffffffffffffffffffffffffffffffffffffffffffffffff8203614159576141586140ed565b5b600182019050919050565b7f4f776e61626c653a2063616c6c6572206973206e6f7420746865206f776e6572600082015250565b600061419a60208361310d565b91506141a582614164565b602082019050919050565b600060208201905081810360008301526141c98161418d565b9050919050565b7f5072696365206c697374696e67206d757374206265203e203000000000000000600082015250565b600061420660198361310d565b9150614211826141d0565b602082019050919050565b60006020820190508181036000830152614235816141f9565b9050919050565b7f546f6b656e2055524920616c7265616479206578697374732021000000000000600082015250565b6000614272601a8361310d565b915061427d8261423c565b602082019050919050565b600060208201905081810360008301526142a181614265565b9050919050565b7f45524337323155524953746f726167653a2055524920717565727920666f722060008201527f6e6f6e6578697374656e7420746f6b656e000000000000000000000000000000602082015250565b600061430460318361310d565b915061430f826142a8565b604082019050919050565b60006020820190508181036000830152614333816142f7565b9050919050565b60006143468285613e7a565b91506143528284613e7a565b91508190509392505050565b7f4f776e61626c653a206e6577206f776e657220697320746865207a65726f206160008201527f6464726573730000000000000000000000000000000000000000000000000000602082015250565b60006143ba60268361310d565b91506143c58261435e565b604082019050919050565b600060208201905081810360008301526143e9816143ad565b9050919050565b7f4552433732313a206f70657261746f7220717565727920666f72206e6f6e657860008201527f697374656e7420746f6b656e0000000000000000000000000000000000000000602082015250565b600061444c602c8361310d565b9150614457826143f0565b604082019050919050565b6000602082019050818103600083015261447b8161443f565b9050919050565b7f4552433732313a207472616e736665722066726f6d20696e636f72726563742060008201527f6f776e6572000000000000000000000000000000000000000000000000000000602082015250565b60006144de60258361310d565b91506144e982614482565b604082019050919050565b6000602082019050818103600083015261450d816144d1565b9050919050565b7f4552433732313a207472616e7366657220746f20746865207a65726f2061646460008201527f7265737300000000000000000000000000000000000000000000000000000000602082015250565b600061457060248361310d565b915061457b82614514565b604082019050919050565b6000602082019050818103600083015261459f81614563565b9050919050565b60006145b1826131bd565b91506145bc836131bd565b9250828210156145cf576145ce6140ed565b5b828203905092915050565b60006145e5826131bd565b91506145f0836131bd565b9250827fffffffffffffffffffffffffffffffffffffffffffffffffffffffffffffffff03821115614625576146246140ed565b5b828201905092915050565b7f436f756e7465723a2064656372656d656e74206f766572666c6f770000000000600082015250565b6000614666601b8361310d565b915061467182614630565b602082019050919050565b6000602082019050818103600083015261469581614659565b9050919050565b7f4552433732313a20617070726f766520746f2063616c6c657200000000000000600082015250565b60006146d260198361310d565b91506146dd8261469c565b602082019050919050565b60006020820190508181036000830152614701816146c5565b9050919050565b7f4552433732313a207472616e7366657220746f206e6f6e20455243373231526560008201527f63656976657220696d706c656d656e7465720000000000000000000000000000602082015250565b600061476460328361310d565b915061476f82614708565b604082019050919050565b6000602082019050818103600083015261479381614757565b9050919050565b7f45524337323155524953746f726167653a2055524920736574206f66206e6f6e60008201527f6578697374656e7420746f6b656e000000000000000000000000000000000000602082015250565b60006147f6602e8361310d565b91506148018261479a565b604082019050919050565b60006020820190508181036000830152614825816147e9565b9050919050565b7f5072696365206d757374206265206174206c6561737420312077656900000000600082015250565b6000614862601c8361310d565b915061486d8261482c565b602082019050919050565b6000602082019050818103600083015261489181614855565b9050919050565b60006080820190506148ad60008301876132e8565b6148ba60208301866132e8565b6148c76040830185613252565b6148d460608301846130d8565b95945050505050565b7f4552433732314d657461646174613a2055524920717565727920666f72206e6f60008201527f6e6578697374656e7420746f6b656e0000000000000000000000000000000000602082015250565b6000614939602f8361310d565b9150614944826148dd565b604082019050919050565b600060208201905081810360008301526149688161492c565b9050919050565b600081519050919050565b600082825260208201905092915050565b60006149968261496f565b6149a0818561497a565b93506149b081856020860161311e565b6149b981613151565b840191505092915050565b60006080820190506149d96000830187613252565b6149e66020830186613252565b6149f360408301856132e8565b8181036060830152614a05818461498b565b905095945050505050565b600081519050614a1f81613073565b92915050565b600060208284031215614a3b57614a3a61303d565b5b6000614a4984828501614a10565b91505092915050565b7f4e487b7100000000000000000000000000000000000000000000000000000000600052601260045260246000fd5b6000614a8c826131bd565b9150614a97836131bd565b925082614aa757614aa6614a52565b5b828204905092915050565b6000614abd826131bd565b9150614ac8836131bd565b925082614ad857614ad7614a52565b5b828206905092915050565b7f4e487b7100000000000000000000000000000000000000000000000000000000600052603160045260246000fd5b7f4552433732313a206d696e7420746f20746865207a65726f2061646472657373600082015250565b6000614b4860208361310d565b9150614b5382614b12565b602082019050919050565b60006020820190508181036000830152614b7781614b3b565b9050919050565b7f4552433732313a20746f6b656e20616c7265616479206d696e74656400000000600082015250565b6000614bb4601c8361310d565b9150614bbf82614b7e565b602082019050919050565b60006020820190508181036000830152614be381614ba7565b905091905056fea26469706673582212207ed5b827e3e4e545e868779b3b879da2326f54f16461bca8c8d92b889aec857964736f6c634300080d0033",
  "immutableReferences": {},
  "source": "// SPDX-License-Identifier: MIT\r\npragma solidity >=0.4.22 <0.9.0;\r\nimport \"@openzeppelin/contracts/token/ERC721/extensions/ERC721URIStorage.sol\";\r\nimport \"@openzeppelin/contracts/utils/Counters.sol\";\r\nimport \"@openzeppelin/contracts/utils/Strings.sol\";\r\nimport \"@openzeppelin/contracts/access/Ownable.sol\";\r\n\r\ncontract NFTMarket is ERC721URIStorage, Ownable {\r\n\r\n    using Counters for Counters.Counter;\r\n\r\n    struct NFTItem {\r\n        uint tokenId;\r\n        uint price;\r\n        address creator;\r\n        bool isListed;\r\n    }\r\n\r\n    uint public listingPrice = 0.025 ether;\r\n\r\n    Counters.Counter private _listedItems;\r\n    Counters.Counter private _tokenIds;\r\n\r\n    mapping (string => bool) private _usedTokenURIS;\r\n    mapping (uint => NFTItem) private _idToNFTItem;\r\n\r\n    mapping(address => mapping(uint => uint)) private _ownedTokens;\r\n    mapping(uint => uint) private _idToOwnedIndex;\r\n\r\n    uint256[] private _allNFTs;\r\n    mapping (uint => uint) private _idToNFTIndex;\r\n\r\n    event NFTItemCreated(uint tokenId, uint price, address creator, bool isListed);\r\n\r\n\r\n    constructor() ERC721(\"CreaturesNFT\", \"CNFT\") {}\r\n\r\n    function setListingPrice(uint newPrice) external onlyOwner {\r\n        require(newPrice > 0, \"Price listing must be > 0\");\r\n        listingPrice = newPrice;\r\n    }\r\n\r\n    function getNFTItem(uint tokenId) public view returns (NFTItem memory) {\r\n        return _idToNFTItem[tokenId];\r\n    }\r\n\r\n    function getListedItems() public view returns (uint){\r\n        return _listedItems.current();\r\n    }\r\n\r\n    function tokenURIExists(string memory tokenURI) public view returns(bool){\r\n        return _usedTokenURIS[tokenURI] == true;\r\n    }\r\n\r\n    function totalSupply() public view returns(uint){\r\n        return _allNFTs.length;\r\n    }\r\n\r\n    function tokenByIndex(uint index) public view returns (uint){\r\n        require(index < totalSupply(), \"Index out of the bounds\");\r\n        return _allNFTs[index];\r\n    }\r\n\r\n    function tokenOfOwnerByIndex(address owner, uint index) public view returns (uint){\r\n        require(index < ERC721.balanceOf(owner), \"Index out of the bounds\");\r\n        return _ownedTokens[owner][index];\r\n    }\r\n\r\n    function getAllNFTsOnSale() public view returns(NFTItem[] memory){\r\n        uint allItemsCount = totalSupply();\r\n        uint currentIndex = 0;\r\n        NFTItem[] memory items = new NFTItem[](_listedItems.current());\r\n\r\n        for(uint i=0; i<allItemsCount; i++){\r\n            uint tokenId = tokenByIndex(i);\r\n            NFTItem storage item = _idToNFTItem[tokenId];\r\n            if(item.isListed) {\r\n                items[currentIndex] = item;\r\n                currentIndex++;\r\n            }\r\n        }\r\n\r\n        return items;\r\n    }\r\n\r\n    function placeNFTOnSale(uint tokenId, uint newPrice) public payable {\r\n        require(msg.sender == ERC721.ownerOf(tokenId), \"Not the owner\");\r\n        require(_idToNFTItem[tokenId].tokenId != 0, \"tokenId is not here\");\r\n        require(_idToNFTItem[tokenId].isListed != true, \"tokenId is already on sale\");\r\n        require(newPrice > 0, \"price should be > 0\");\r\n        require(msg.value == listingPrice, \"Not enough found to list\");\r\n\r\n        _idToNFTItem[tokenId].isListed = true;\r\n        _idToNFTItem[tokenId].price = newPrice;\r\n        _listedItems.increment();\r\n    }\r\n\r\n    function getOwnedNfts() public view returns(NFTItem[] memory) {\r\n        uint ownedItemsCount = ERC721.balanceOf(msg.sender);\r\n\r\n        NFTItem[] memory items = new NFTItem[](ownedItemsCount);\r\n\r\n        for(uint i = 0; i<ownedItemsCount; i++){\r\n            uint tokenId = tokenOfOwnerByIndex(msg.sender, i);\r\n            NFTItem storage item = _idToNFTItem[tokenId];\r\n            items[i] = item;\r\n        }\r\n\r\n        return items;\r\n    }\r\n\r\n    function mintToken(string memory tokenURI, uint price) public payable returns(uint) {\r\n        require(!tokenURIExists(tokenURI), \"Token URI already exists !\");\r\n        require(msg.value >= listingPrice, \"Not enough funds\");\r\n\r\n        _tokenIds.increment();\r\n        _listedItems.increment();\r\n\r\n        uint newTokenId = _tokenIds.current();\r\n\r\n        _safeMint(msg.sender, newTokenId);\r\n        _setTokenURI(newTokenId, tokenURI);\r\n\r\n        _usedTokenURIS[tokenURI] = true;\r\n\r\n        _createNFTItem(newTokenId, price);\r\n\r\n        return newTokenId;\r\n    }\r\n\r\n    function buyNFT(uint tokenId) public payable {\r\n        uint price = _idToNFTItem[tokenId].price;\r\n        address owner = ERC721.ownerOf(tokenId);\r\n\r\n        require(msg.sender != owner, \"You already own this NFT\");\r\n        require(msg.value >= price, \"Not enough funds\");\r\n\r\n        _idToNFTItem[tokenId].isListed = false;\r\n        _listedItems.decrement();\r\n\r\n        _transfer(owner, msg.sender, tokenId);\r\n        payable(owner).transfer(msg.value);\r\n    }\r\n\r\n    function _createNFTItem(uint tokenId, uint price) private {\r\n        require(price > 0, \"Price must be at least 1 wei\");\r\n\r\n        _idToNFTItem[tokenId] = NFTItem(tokenId, price, msg.sender, true);\r\n\r\n        emit NFTItemCreated(tokenId, price, msg.sender, true);\r\n    }\r\n\r\n    function _beforeTokenTransfer(address from, address to, uint tokenId) internal virtual override {\r\n        super._beforeTokenTransfer(from, to, tokenId);\r\n\r\n        // minting token\r\n        if(from == address(0)) {\r\n            _addTokenToAllTokensEnumeration(tokenId);\r\n        } else if(from != to){\r\n            _removeTokenFromOwnerEnumeration(from, tokenId);\r\n\r\n            // If burn token\r\n            if(to == address(0)){\r\n                _removeTokenFromAllEnumeration(tokenId);\r\n            }\r\n\r\n        }\r\n\r\n        if(to != from && to != address(0)) {\r\n            _addTokenToOwnerEnumeration(to, tokenId);\r\n        }\r\n    }\r\n\r\n    function _addTokenToAllTokensEnumeration(uint tokenId) private {\r\n        _idToNFTIndex[tokenId] = _allNFTs.length;\r\n        _allNFTs.push(tokenId);\r\n    }\r\n\r\n    function _addTokenToOwnerEnumeration(address to, uint tokenId) private {\r\n        uint length = ERC721.balanceOf(to);\r\n\r\n        _ownedTokens[to][length] = tokenId;\r\n        _idToOwnedIndex[tokenId] = length;\r\n    }\r\n\r\n    function _removeTokenFromOwnerEnumeration(address from, uint tokenId) private {\r\n        uint lastTokenIndex = ERC721.balanceOf(from) - 1;\r\n        uint tokenIndex = _idToOwnedIndex[tokenId];\r\n\r\n        if(tokenIndex != lastTokenIndex){\r\n            uint lastTokenId = _ownedTokens[from][lastTokenIndex];\r\n\r\n            _ownedTokens[from][tokenIndex] = lastTokenId;\r\n            _idToOwnedIndex[lastTokenId] = tokenIndex;\r\n\r\n        }\r\n\r\n        delete _idToOwnedIndex[tokenId];\r\n        delete _ownedTokens[from][lastTokenIndex];\r\n    }\r\n\r\n    function _removeTokenFromAllEnumeration(uint tokenId) private {\r\n        uint lastTokenIndex = _allNFTs.length - 1;\r\n        uint tokenIndex = _idToNFTIndex[tokenId];\r\n\r\n        if(tokenIndex != lastTokenIndex){\r\n            uint lastTokenId = _allNFTs[lastTokenIndex];\r\n\r\n            _allNFTs[tokenIndex] = lastTokenId;\r\n            _idToNFTIndex[lastTokenId] = tokenIndex;\r\n\r\n        }\r\n\r\n\r\n        delete _idToNFTIndex[tokenId];\r\n        _allNFTs.pop();\r\n    }\r\n\r\n\r\n}",
  "sourcePath": "D:\\Projets\\web3\\nft-mkp\\contracts\\NFTMarket.sol",
  "compiler": {
    "name": "solc",
    "version": "0.8.13+commit.abaa5c0e.Emscripten.clang"
  },
  "schemaVersion": "3.4.7",
  "updatedAt": "2022-08-26T15:42:04.978Z",
  "networkType": "ethereum",
  "devdoc": {
    "kind": "dev",
    "methods": {
      "approve(address,uint256)": {
        "details": "See {IERC721-approve}."
      },
      "balanceOf(address)": {
        "details": "See {IERC721-balanceOf}."
      },
      "getApproved(uint256)": {
        "details": "See {IERC721-getApproved}."
      },
      "isApprovedForAll(address,address)": {
        "details": "See {IERC721-isApprovedForAll}."
      },
      "name()": {
        "details": "See {IERC721Metadata-name}."
      },
      "owner()": {
        "details": "Returns the address of the current owner."
      },
      "ownerOf(uint256)": {
        "details": "See {IERC721-ownerOf}."
      },
      "renounceOwnership()": {
        "details": "Leaves the contract without owner. It will not be possible to call `onlyOwner` functions anymore. Can only be called by the current owner. NOTE: Renouncing ownership will leave the contract without an owner, thereby removing any functionality that is only available to the owner."
      },
      "safeTransferFrom(address,address,uint256)": {
        "details": "See {IERC721-safeTransferFrom}."
      },
      "safeTransferFrom(address,address,uint256,bytes)": {
        "details": "See {IERC721-safeTransferFrom}."
      },
      "setApprovalForAll(address,bool)": {
        "details": "See {IERC721-setApprovalForAll}."
      },
      "supportsInterface(bytes4)": {
        "details": "See {IERC165-supportsInterface}."
      },
      "symbol()": {
        "details": "See {IERC721Metadata-symbol}."
      },
      "tokenURI(uint256)": {
        "details": "See {IERC721Metadata-tokenURI}."
      },
      "transferFrom(address,address,uint256)": {
        "details": "See {IERC721-transferFrom}."
      },
      "transferOwnership(address)": {
        "details": "Transfers ownership of the contract to a new account (`newOwner`). Can only be called by the current owner."
      }
    },
    "version": 1
  },
  "userdoc": {
    "kind": "user",
    "methods": {},
    "version": 1
  }
}